:100000000EC066C027C026C025C024C023C022C0A1
:1000100021C020C0C3C0EBC01DC01CC01BC0112428
:100020001FBECFE5D2E0DEBFCDBF10E0A0E6B0E05E
:10003000E2E3F2E002C005900D92A236B107D9F7D3
:1000400020E0A2E6B0E001C01D92A237B207E1F7BE
:10005000D8D0EDC0D5CFF89480E48BBF78940895C4
:1000600080916400909165008130910509F00895B8
:100070002091620030916300232BC9F710926B002E
:1000800010926A0090936300809362000895CF936A
:10009000DF93C0916200D0916300C130D10581F43B
:1000A00073D08835924078F06FD08935924040F017
:1000B000109263001092620010926500109264002A
:1000C000DF91CF910895D0936300C0936200ECCF8D
:1000D0001F920F920FB60F9211248F939F9381E07E
:1000E00090E090936500809364009F918F910F90B2
:1000F0000FBE0F901F901895809166009091670039
:10010000009759F0019741F4C09A80916400909152
:1001100065000197D1F008950895C098809164001A
:100120009091650081309105C9F033D0893B9B40A7
:1001300090F385B7877E806185BF85B7806285BF74
:10014000889585B78F7D85BF0895109267001092BE
:1001500066001092690010926800089590936700FD
:1001600080936600E2CFF89482E08ABD83BF88E185
:1001700089BF8DE789BD84E188BD78940895809119
:100180006C0090916D00089580916A0090916B00D1
:100190000895809168009091690008951F920F92D0
:1001A0000FB60F9211248F939F9380916C009091C2
:1001B0006D00019690936D0080936C0080916A00B1
:1001C00090916B00019690936B0080936A008091F0
:1001D000680090916900019690936900809368008F
:1001E0009F918F910F900FBE0F901F9018951F92A7
:1001F0000F920FB60F9211240F900FBE0F901F9009
:100200001895B89AC29AAFDF26DFB9DF2091600057
:100210003091610028173907C0F7265F3F4F3093B0
:100220006100209360001CDF32DF66DFEECFF894C0
:02023000FFCFFE
:020232000A00C0
:00000001FF
